:020000041000EA
:1000000000200008EB0000100D0000004D01001062
:1000100000000000000000000000000000000000E0
:100020000000000000000000000000004901001076
:10003000000000000000000049010010490100100C
:100040004901001049010010490100104901001048
:100050004901001049010010490100104901001038
:100060004901001049010010490100104901001028
:100070004901001049010010490100104901001018
:1000800010B5064C2378002B07D1054B002B02D06E
:10009000044800E000BF0123237010BDB003000836
:1000A0000000000014150010044B10B5002B03D005
:1000B0000349044800E000BF10BDC0460000000036
:1000C000B4030008141500100230800803D001307A
:1000D0000238FCD1C046C0467047EFF3108072B6BC
:1000E000704780F3108870477047FFF7FDFF72B6C6
:1000F0000F4C104DAC4209DA21686268A368043BDA
:1001000002DBC858D050FAE70C34F3E70A490B4A2F
:100110000020521A02DD043A8850FCDC08480949E4
:100120000860BFF34F8F00F0EDFE00F09BFEFEE78E
:100130002015001038150010B0030008C80500088D
:100140000000000808ED00E0FEE7FEE700B504202F
:100150007146084202D0EFF3098002E0EFF3088015
:10016000043000F091FCFEE7014B18607047C04678
:10017000CC030008044B1B681A00BA3212881B6AB1
:100180005043C0187047C046CC030008A02300B5F8
:100190001B06984226D015D8802825D00AD81028CA
:1001A00024D0402824D000280BD0154809E0A420F2
:1001B000C00306E08022134B520090421CD09842AC
:1001C000F3D100BD104B984218D0104BC018042832
:1001D000EBD800F035FFECEA0F0305000C48F0E720
:1001E0000C48EEE70020ECE70B48EAE70B48E8E7AD
:1001F0000B48E6E70B48E4E71800E2E7A020D7E762
:10020000FF00520006005200090000A0FFFFFF0F90
:10021000020052000300520005005200010050008D
:10022000020050000100520010B50020FFF7A2FFAD
:100230000A4B1C682300BC331B68C0180368002BE2
:100240000ADB074B1868FFF7A1FF012263689A6079
:100250009A68002AFCD110BD0248FCE7CC030008D4
:10026000D003000802005000064B1B68BC331B681B
:10027000C3181B68002B03DA89B241600020704765
:100280000148FCE7CC03000801008A000368002B4A
:1002900004DA89B2C2608160002070470048FCE740
:1002A00001008A00064B1B68BC331B68C3181B681F
:1002B000002B03DAC36800200B6070470148FCE79D
:1002C000CC03000801008A00024B1A68002A00D102
:1002D00018607047E4030008F0B52C244443154827
:1002E0001F0000681E0A0019FF2426402740124CF8
:1002F0001B0C256807602C6A46608360BA352D8820
:100300006F433F190761370080377F01E7190B4DB5
:1003100076014761A4191F043B436419236000233D
:100320008361059BC2610162002B01D01B88838120
:10033000F0BDC046E4030008CC030008081000002C
:10034000F0B5836885B002AD2B800368066A173369
:100350006B804368476A0095826AC16A0400039310
:100360000369C068FFF7B8FF00213B000A003000B6
:100370000091FFF7B1FF2800216B00F039FB00224C
:10038000AB5E002B06DB1F2213401E3A9A4013007F
:10039000014A136005B0F0BD00E100E0F7B52C267E
:1003A000134C70434E43246801932518A4192E69F9
:1003B000002E19D0A069002818D13168002915DA5B
:1003C00001216F680D0063689D40AC4613689DB2C3
:1003D00063461B041D431560F260A161B940019B97
:1003E00089B26362B160FEBD0248FCE70248FAE7E9
:1003F000E403000804028A0007028A0073B500269D
:1004000042690400D56801962B0CB34221D01B042D
:1004100013601368194B00691B68BC331B68C31851
:100420001B68B34215DA01A9FFF73CFFB0420CD1BB
:100430000198E26903681E0CDBB29A4205D9226A70
:100440009B009B58002B00D0984731002069FFF794
:100450000BFFADB2002D09D063691D6000251B683C
:10046000636AAB4205D098476562A56163691B6802
:1004700073BDA36A002BF8D09847F6E7CC030008B9
:100480002C2310B54343034A1068C018FFF7B6FF8A
:1004900010BDC046E40300081A4B70B51A680C0082
:1004A000130033331B7883422AD9002928D00D68E2
:1004B0001F212B000B400D4222D11100BA310988B7
:1004C000126A48431900104D8018286022685209AA
:1004D000934210D30021FFF7C7FE002122002868B5
:1004E000FFF7D4FE011E04D12868FFF7BDFE0028E7
:1004F00000D0064870BD66689A0091510133E5E767
:100500000348F7E7CC030008E803000801018A006C
:1005100003018A0010B504000800002A0CD100294C
:1005200013D10B4B1A681300BA331B88126A63434A
:100530009B18084A136010BD002906D006490860C0
:1005400020004A60FFF7A8FFF5E70448F3E7C0463C
:10055000CC030008E80300087803000803018A00C0
:10056000F7B5184F04003B680191DE683368834299
:1005700026D90025A94202D1FFF7AFFD0500386852
:100580000368002B1ADA1F220123224093406409DA
:100590007268A4001419226813420DD09A43226095
:1005A00000240021FFF760FE019B002B02D12800F0
:1005B000FFF797FD2000FEBD034CF2E7034CF3E785
:1005C000034CF7E7E80300080201880003018800F4
:1005D00004018A000A4B1B68DB681A6882420DD945
:1005E00059681F23420918401E3B8340920050580F
:1005F0001840431E9841034BC01870470248FCE75F
:10060000E80300080001880004018A00054B1B680C
:100610001A0088321B6812689B181868000AC0B25A
:100620007047C046CC030008044B1B681A00883290
:100630001B6812689B181868000E7047CC030008EE
:10064000034BE0308000C0588006800F7047C046E2
:1006500000002640024B18694007C00F7047C04693
:1006600000002740A6220549D2008B580220DB4318
:100670009B0702D00123885818407047000026408D
:1006800010B5FFF7EFFF0023022801D1014B1B68D3
:10069000180010BDF0030008094A83009B18D022FF
:1006A0009200985807221040042807D1C0229200D7
:1006B00098581F2303408020400018437047C046CD
:1006C0000000264010B5FFF7E7FF88235B00984243
:1006D0001AD009D8012811D0022812D0434258411B
:1006E000114B4042184010BD1223FF33984213D0E3
:1006F0001423FF33984214D00020F4E70B4B186802
:10070000F1E7FFF7BDFFEEE7094A0A4BD358002B8C
:10071000F2DA80200002E6E7FFF79CFF0028EBD02A
:10072000F7E7034A044BF1E700127A00EC030008F4
:10073000000026400C0500003C050000B023154ACF
:10074000DB00D35810B59903DB01DB0F890BC371B4
:10075000114B0160D3580F24D904DB01DB0D038159
:10076000B123DB00D358C90C81801900214081726C
:1007700019092140C172D9029B009B0F8373074B5B
:10078000C90CD35881815A05DB01520FDB0D8271F0
:10079000038210BD00002640840500008C05000087
:1007A0008030034BFF308000C058C00F7047C046F8
:1007B0000000264010B5104B421E1B683F331B78CB
:1007C000934216D97F221F2480300C4BFF308000CB
:1007D000C3581A400A701A0C2240180A8A701A016B
:1007E0002040E240487000209B009B0FCA700B71B4
:1007F00010BD0348FCE7C046CC03000800002640BB
:1008000001004A00F0B589B003AC2000FFF796FF65
:10081000B0231A4ADB00D25800239A4203DAA37BA2
:10082000023B5A1E9341E57900266A1E9541013527
:10083000B34220D0A488B4421DD03000039FFFF7FC
:1008400041FF2A00330031000190200000F0AEFC8F
:100850000C00050033003A003100019800F0A6FCBE
:10086000E6076A0832436308801859412A002300CA
:1008700000F07CFC0600300009B0F0BD000026400E
:10088000F7B5234B06001B683F331B78002B08D0BD
:1008900000283BD0834204D36946FFF78BFF041E38
:1008A00001D0002632E03000FFF77AFF2300002855
:1008B00005D06B461C79023C23005A1E93416A46C0
:1008C0005478002BEDD0002CEBD09578002DE8D09B
:1008D00030001778FFF7F6FE002306002A002000FC
:1008E000190000F063FC00230C0005003A00300002
:1008F000190000F05BFCE6076A08324363088018C1
:1009000059412A00230000F031FC06003000FEBDF2
:10091000CC03000810B5041E04D1FFF773FF0028B4
:1009200006D008E0064B1B683F331B78834203D296
:100930002000FFF7C7FE10BDFFF7A2FFEFE7C0469C
:10094000CC03000870B50500FFF77AFEE035074BD1
:10095000AD000400E8580F231840FFF7DBFF012328
:10096000A3405B081818E04070BDC0460000264058
:10097000144B30B51C6823002C331A7807231F2A28
:1009800015D8820815009D432B1E0FD10333184044
:10099000984081402368920020339B180A00FF2171
:1009A00081401C68624011406140196030BD1840B0
:1009B00080231B06184380239B012268C9188900E5
:1009C0008850F3E7CC030008064B10B59A68064C34
:1009D00010308300A24202D19858995010BD034AAA
:1009E000D058FBE700ED00E0000000080000001018
:1009F000F8B506000D0000283AD00023C05E00289C
:100A000028DB7188FFF7B4FF0024FF2203279446F8
:100A10000023F05E71680740FF006646BA40890116
:100A20003140D243B94083B2002815DB114E830810
:100A30009B009B19C026B6009F593A40114399511B
:100A40000D4B9A680D4B9A4202D12900FFF7BCFF6B
:100A50002000F8BD0A4CD8E70F263340083B064E6D
:100A60009B089B009B19DE6932401143D961E7E77F
:100A7000034CEDE700E100E000ED00E000000008BD
:100A800001005600FEE7000002680A4B10B51A602C
:100A900042685A6082689A60C268DA6002691A61C4
:100AA00042695A6182699A61C269DA61FFF7EAFFB5
:100AB00010BDC04690030008B0235B055A78212082
:100AC000002A01D05878C0B27047B0235B059A89DC
:100AD000002A02D0988980B2704780204000FBE74E
:100AE0007FB5274B86000D00F458042901D0012959
:100AF00027D100200FE0A3682B420BD1E368290027
:100B00001A685B6802920193039302A823689847CE
:100B10001C4B1C606469002C0BD01B4B9842EAD123
:100B2000012DE8D1174B18481A68184B9A5104B098
:100B300070BD012DFBD1144B9842F3D0134B9C5147
:100B4000F5E7022915D026006469002CFBD10020AE
:100B5000002EECD0B3682B4209D1F36829001A6843
:100B60005B6802920193039302A833689847366941
:100B7000EEE7044B1B68181ED9D01E69E7E7C04694
:100B80003404000830040008FF0042001C04000880
:100B90001A4B1B68190088311A68096851180968CE
:100BA000016219008C3109685218126842621A00F9
:100BB00046321278002A1FD09A68E0321268D206B4
:100BC0001AD5F222DB68D2019A580260F022D201D3
:100BD0009A5842600A4A9A5882600A4A9A58C260F1
:100BE000094A9A580261094A9A584261084A9A5831
:100BF0008261084A9B58C3617047C046CC03000815
:100C000004780000087800000C78000010780000DC
:100C100014780000187800001A4B1B681A008832FC
:100C2000196812688A18016A11601A008C321968F2
:100C300012688A18416A11601A0046321278002A36
:100C40001ED09A68E0321268D20619D5F0224168A7
:100C5000DB68D201995081680B4A9950C1680B4AF0
:100C6000995001690A4A995041690A4A9950816923
:100C7000094A9950C169094A99500168E832995066
:100C80007047C046CC0300080478000008780000D4
:100C90000C7800001078000014780000187800002C
:100CA000F7B50700FFF708FF5D4D06006B68002BE6
:100CB00000D07DE0FFF711FA6B680090002B00D0A8
:100CC00089E0584C22681300BA33198807234B4334
:100CD000126A9B181A68002AFCDADB68DA0021D550
:100CE0001B0F1B0750480193FFF752FF20684F4925
:100CF000030088331C6803681C1923680B40212EED
:100D000000D06DE0902212011343236003008C3366
:100D100000681B68C318186801400A431A60424BF8
:100D2000019A134380223F4E9205316813430A0013
:100D3000BA321088072200244243096A5218D3604D
:100D400054605368FFF7C1FE80235B0098424AD18C
:100D5000380000F05DFB32681300BA3319880723AE
:100D60004B43126A9B181A68002AFCDADF68FB0002
:100D700003D538010009FFF74FFF2D4B32681F40A4
:100D80001300BA33198807234B43126A00989B1843
:100D90000022DF605A60FFF7A4F9002C0FD16B68C6
:100DA000002B03D008210120FFF79AFE2000FEBD92
:100DB00001210800FFF794FE041E00D17AE76B685A
:100DC000002B03D002210120FFF78AFE194B9C4221
:100DD000ECD0194CEAE704210120FFF781FE70E70F
:100DE0008022520090E733681A00BC32196A1268F8
:100DF00052181168002910DBBA331B889A1813683F
:100E0000002B0ADB04230D4A11690B431361012FE8
:100E100001D030BF9FE720BF9DE7064C9BE7C0464F
:100E200034040008CC030008F4030008FF00FFFFAF
:100E3000FFFFFFDF05004200FF00420000ED00E081
:100E4000C0228020064952008B58C0059B009B0899
:100E500003438B50802388581B0603438B507047F5
:100E60000000264010B562B6034800F0C3F8002029
:100E7000FFF716FFFBE7C0460020001010B500206A
:100E8000FFF7FEFA10BD704710B50020FFF75AFDBE
:100E9000041E28D0144B1860FFF7C6FB411C20002D
:100EA00000F0D8F8114B04001860FFF7AFFB411CAD
:100EB000200000F0CFF804000D4B013C18600D49F4
:100EC000200000F0C7F8FA210B4B013018708900A0
:100ED000200000F0BFF8094B013018600020FFF738
:100EE00031FD074B186010BD880000088C00000819
:100EF0008000000840420F009400000890000008A5
:100F00008400000810B52048FFF72EF9B022E02138
:100F100030201E4CD200A35889005B005B08A35010
:100F200063588343635080235B04A350184B194AD2
:100F3000E250A02204339201E250FF22164BE2500D
:100F4000FFF77EFFC02201215200A3588B43A3501C
:100F5000FFF799FFFFF798FF104B03201A68130063
:100F6000BA33198807234B43126A80219B18002249
:100F7000DA605A600A4AFFF7CDFA0A48FFF7A4F987
:100F80000948FFF7DDF910BD2014001000002640CD
:100F900084050000010002008C050000CC0300085D
:100FA0008003000848040008E01400109023034A5E
:100FB0005B01D058032318407047C0460000204012
:100FC00010B59024FFF789F8074B64011A590749B7
:100FD0001140074A0A431A51102259681142FCD0A5
:100FE000FFF77FF810BDC04600002040FCFF000066
:100FF0000100FA05F8B590260E4C76010700FFF7C0
:101000006CF8A3590500DB439B0701D1FFF7D8FF1C
:1010100080239B00E750A359074A1A40074B13430C
:10102000A351102362681A42FCD02800FFF759F838
:10103000F8BDC04600002040FCFF00000300FA0598
:1010400002B4714649084900095649008E4402BC61
:101050007047C046002243088B4274D303098B4279
:101060005FD3030A8B4244D3030B8B4228D3030C78
:101070008B420DD3FF22090212BA030C8B4202D31A
:101080001212090265D0030B8B4219D300E0090A42
:10109000C30B8B4201D3CB03C01A5241830B8B424B
:1010A00001D38B03C01A5241430B8B4201D34B0334
:1010B000C01A5241030B8B4201D30B03C01A524199
:1010C000C30A8B4201D3CB02C01A5241830A8B421E
:1010D00001D38B02C01A5241430A8B4201D34B0207
:1010E000C01A5241030A8B4201D30B02C01A52416B
:1010F000CDD2C3098B4201D3CB01C01A524183091F
:101100008B4201D38B01C01A524143098B4201D358
:101110004B01C01A524103098B4201D30B01C01A83
:101120005241C3088B4201D3CB00C01A52418308FD
:101130008B4201D38B00C01A524143088B4201D32A
:101140004B00C01A5241411A00D20146524110468A
:101150007047FFE701B5002000F006F802BDC04669
:101160000029F7D076E770477047C046002B11D1B1
:10117000002A0FD1002900D1002802D00021C94344
:10118000080007B4024802A14018029003BDC046FF
:10119000D9FFFFFF03B4684601B5029800F034F8A8
:1011A000019B9E4602B00CBC7047C046F0B5CE46CF
:1011B000474680B5070099463B0C9C4613041B0C20
:1011C0001D000E0061460004140C000C45434B4307
:1011D00060436143C0182C0C20188C46834203D90D
:1011E00080235B029846C444494679437243030C0A
:1011F00063442D042D0CC918000440198918C0BC83
:10120000B946B046F0BDC046F0B557464E464546D5
:10121000DE46E0B504000D009246994683B08B424D
:1012200030D82DD04946504600F0D8F829000600A5
:10123000200000F0D3F8331A9846203B9B4633D465
:101240005A465346934042461F00534693401E0061
:10125000AF423AD8AF4200D178E05B46A41BBD4113
:10126000002B00DA75E00022002300920193012395
:101270005A4693400193012342469340009328E04D
:101280008242CFD900220023009201930C9B002BB5
:1012900001D01C605D600098019903B0F0BCBB46B2
:1012A000B246A946A046F0BD424620239B1A5246AC
:1012B000DA40414613004A468A40170042461F431F
:1012C000534693401E00AF42C4D90022002300922F
:1012D00001934346002BD9D0FB0772081A434646B8
:1012E0007B080EE0AB4201D1A2420CD8A41A9D416A
:1012F000012024196D410021013E24184D41002E8A
:1013000006D0AB42EED9013E24196D41002EF8D132
:10131000009801995B4600196941002B24DB2B00E2
:101320005A464446D3402A00E2401C005B46150062
:10133000002B2ADB26009E40330026004746BE4095
:101340003200801A9941009001919FE7A342BCD8D6
:1013500083E74246202300219B1A0022009101923C
:101360000122DA40019286E7424620239B1A2A0096
:1013700046469A402300F340444613432A00E24085
:101380001C005B461500002BD4DA42462F002023B8
:10139000260097409B1ADE403B003343CDE7C04612
:1013A0001C2101231B04984201D3000C10391B0A95
:1013B000984201D3000A08391B09984201D3000959
:1013C000043902A2105C40187047C04604030202B0
:1013D00001010101000000000000000010B500291B
:1013E00003D1FFF7DDFF203002E00800FFF7D8FF50
:1013F00010BDC046F8B5C046F8BC08BC9E46704754
:10140000F8B5C046F8BC08BC9E4670470000000016
:1014100001B40248844601BC604700BF6102000875
:1014200000002040000024400000004000000000B8
:1014300000002340000030400000314000009F4089
:10144000000022400000104000009D40202020208D
:1014500020101010101D1D8017007500FF030602DC
:1014600006003604102000007FC0000000040000C9
:10147000000000000019324B647D00000000008075
:101480004000080B100000000000FF012002001FB8
:1014900000800004FF081018001000140018001C41
:1014A0004044484C500000000810000008000000B4
:1014B00004000000041000000012000004210000DD
:1014C000002100000016000040114002C413001368
:1014D0008013A01340138813A81320001C000000E1
:1014E00003000000010000000100000000000000F7
:1014F000050360000400000001000000000000007F
:10150000010000000604600008000000A8050008B3
:101510007D0E001000000000F0FCFF7F01000000C5
:1015200000000010000000088000000040150010BE
:1015300080000008F8020000B00300081802000054
:1015400000093D0000093D0000127A0000093D003D
:10155000A00F000004000000A9000010810000108E
:1015600080B230B5C400002820D0114B0722186883
:101570000300BA331B885343026A9A181168002982
:10158000FCDA3E210B4A062511600B4A0B4911601B
:10159000A3210B4AC90055500A495450006A5458B7
:1015A0001B18002058605358002BFCDA30BDC04691
:1015B000CC03000804012640080126401E1F00003D
:1015C000000026401C05000010B54378FF2B11D108
:1015D00000F0FAF80400032000F00EF90121C368BE
:1015E0005B681A680A431A601A680A42FCD1200034
:1015F00000F01AF910BDF7B507000020019100F0C6
:10160000FBF83E4C050023681A005033BC321668C4
:101610001B788619002B59D000F0F6F800900328AB
:101620001AD000F0D1F8364A364B0400D358002BBC
:101630003CDA01212800344A00F0D6F8002835D1E0
:101640000198FFF78DFF002F3ED03368002BFCDBA5
:1016500000F0B2F805002AE0062000F0CDF823687B
:10166000BC331B68C0180368002B02DA274D280022
:10167000FEBD002000F0B0F8254B9842F6D00023C4
:10168000244A19000120126800F0C6F8041EEDD1AA
:10169000002000F0A1F81E4A1F4B904203D09C424C
:1016A000E4D00134F4E79C42BBD1DFE7174D009B47
:1016B000032B05D10121002000F076F80028F9D194
:1016C000200000F0B1F8D2E7144DF0E700F07CF80C
:1016D000012104000C4A280000F086F8002808D1F7
:1016E000002F08D03368002BFCDB00F065F8050004
:1016F000E6E7064DE4E7094DE2E7C046CC03000803
:10170000000026401C050000D00300080500520020
:1017100001018800E0030008F049020001005000C8
:10172000184BF7B51B6818495A6804230C69234302
:101730000B61012824D030BF1300FC331B69002B40
:101740001DD1A324114B12481249E40007681E5909
:101750000D680195104D056006251D513E240C6055
:101760000E4C3E351D511D59002DFCDA0C4CFC323F
:101770001461A322D20007609E50019B0B60F7BD4D
:1017800020BFD9E7CC03000800ED00E000002640B0
:1017900008012640040126401E1F00001C05000011
:1017A000AAAAAAAA0000000001B40248844601BC0B
:1017B000604700BF6105001001B40248844601BCC7
:1017C000604700BF2902001001B40248844601BCF2
:1017D000604700BFDB00001001B40248844601BC32
:1017E000604700BFD505001001B40248844601BC23
:1017F000604700BF8D02001001B40248844601BC5E
:10180000604700BF7501001001B40248844601BC66
:10181000604700BFAD0F001001B40248844601BC10
:10182000604700BF9D03001001B40248844601BC1C
:10183000604700BFE300001000000000000000004F
:101840000000000000000000000000000000000098
:101850000000000000000000000000000000000088
:101860000000000000000000000000000000000078
:101870000000000000000000000000000000000068
:1020000000460008413700101F7F001015370010F0
:1020100015370010153700101537001000000000AC
:1020200000000000000000000000000095330010D8
:10203000153700100000000041330010453E00102D
:10204000453400104534001045340010453400106C
:10205000453400104534001045340010453400105C
:10206000453400104534001045340010453400104C
:10207000453400104534001045340010453400103C
:1022E0000230800803D001300238FCD100BF00BFAB
:1022F0007047EFF3108072B6704780F31088704714
:102300007BB972B90029BEBF00204FF0004106E042
:1023100008BF00281CBF6FF000414FF0FF3000F0F5
:1023200057B8ADF1080C6DE904CE002909DB002B8C
:102330001ADB00F04FF8DDF804E0DDE9022304B019
:102340007047404261EB4101002B1BDB00F042F87B
:10235000DDF804E0DDE9022304B0404261EB410115
:10236000524263EB43037047524263EB430300F076
:1023700031F8DDF804E0DDE9022304B0404261EB0E
:1023800041017047524263EB430300F023F8DDF84C
:1023900004E0DDE9022304B0524263EB43037047DB
:1023A00053B94AB9002908BF00281CBF4FF0FF31BC
:1023B0004FF0FF3000F00CB8ADF1080C6DE904CE21
:1023C00000F008F8DDF804E0DDE9022304B070470E
:1023D000704700BF2DE9F04786468C460846089EA8
:1023E000154674461946002B40F0C2808542B2FA69
:1023F00082F245D94AB1C2F1200300FA02FC2EFA5A
:1024000003F3954043EA0C0C94404FEA154EA8B2F2
:10241000BCFBFEF8230C0EFB18CC08FB00F943EACA
:102420000C43994528D9EB1808F1FF3704D2994598
:1024300002D9A8F102072B44A3EB0903A4B2B3FB12
:10244000FEFC0EFB1C330CFB00F044EA0344A042EC
:1024500014D92C190CF1FF3304D2A04202D9ACF1EB
:1024600002032C44241A43EA07401EB1D44000233F
:1024700034607360BDE8F0874746DDE76346F1E707
:1024800092BB431B01214FEA154EAFB2B3FBFEFCDA
:10249000200C0EFB1C330CFB07F840EA0343984565
:1024A00062D9EB180CF1FF3004D2984502D9ACF197
:1024B00002002B44A3EB0803A4B2B3FBFEFC0EFB0B
:1024C0001C330CFB07F744EA0344A7424ED92C19EE
:1024D0000CF1FF3304D2A74202D9ACF102032C4421
:1024E000E41B43EA0040C0E7C2F1200320FA03F1F5
:1024F000954090402EFA03F303434FEA154EAFB2D6
:10250000B1FBFEFC0EFB1C10190C0CFB07F841EA9A
:102510000041884504FA02F422D969180CF1FF3011
:1025200004D2884502D9ACF102002944A1EB08018C
:102530009BB2B1FBFEFC0EFB1C110CFB07F743EA40
:1025400001439F420ED9EB180CF1FF3104D29F4298
:1025500002D9ACF102012B44DB1B41EA004192E7B6
:102560006046E3E76146F7E76046A3E76346B7E7FF
:10257000834206D916B9002108467BE7C6E900E088
:10258000F9E7B3FA83F78FB9834201D3724508D8CC
:10259000BEEB020460EB030301209C461EB9002140
:1025A00068E73846FAE7C6E9004CF8E7C7F1200CBF
:1025B000BB4022FA0CF41C432EFA0CF120FA0CF367
:1025C000B84001434FEA14490EFA07F5B3FBF9F896
:1025D0001FFA84FE09FB18300B0C08FB0EFA43EAC5
:1025E00000439A4502FA07F240D9E31808F1FF3098
:1025F00004D29A4502D9A8F102002344A3EB0A03AE
:1026000089B2B3FBF9F809FB183308FB0EFE41EA67
:1026100003418E452CD9611808F1FF3304D28E4551
:1026200002D9A8F10203214443EA0040A0FB02982A
:10263000A1EB0E014145CE46434602D306D14D459E
:1026400004D2B9EB020E68EB04030138002EA6D0C9
:10265000B5EB0E0261EB030101FA0CFC22FA07F361
:102660004CEA0303F940C6E9003198E74046C5E764
:102670004346D9E7000000002DE9F04FA1F1B77300
:102680000E46A749A3F558538B4293B0044600F277
:102690003E8106EB8603B3FBF0F30A2B40F2378151
:1026A000022A00F02981002002F098FD01238DF814
:1026B000133006FA03FA9B4B8DF81A20B3EB460F42
:1026C00080467AD3984B9A457AD8984B9A457AD8CF
:1026D000974B9A4594BF4FF000094FF0010940F223
:1026E000111398458DF8129070D04FF0FF30FA25F5
:1026F0000146E4FB050132460023FFF751FE451C6D
:10270000ADB24FF0FF30014622460023EAFB05013F
:10271000ADF81050FFF744FE44F6FB130130039070
:10272000844F58430138844BB0FBF3F00130ADF8CF
:1027300014000FCF0DF1200CACE80F0057F8043B4C
:10274000CCF800300FCF0DF1340CACE80F003B6833
:10275000CCF8003012AB03EB8909784859F8287C93
:1027600059F8149C09FB07F2A2FB05234FEA520C0F
:102770004CEAC37CA4FB000110EB0C0001EB8411BC
:1027800041EB5301FFF70CFE6D4A0B234FF0000C99
:102790001946824203F1FF33DBB21CD8BCF1000FB3
:1027A00016D10B238DF8163040F21113984519D12C
:1027B0004B1E8DF81630520814E04FF004098EE7D6
:1027C0004FF003098BE74FF0020988E7132598E7DC
:1027D0008DF81610E8E752084FF0010C002BD7D106
:1027E0008DF8163056490B234FF0000C801A1A460C
:1027F000814203F1FF33DBB20ED8BCF1000F08D1E8
:102800000B238DF8173040F2111398450BD1531E4E
:1028100007E08DF81720F6E749084FF0010C002B70
:10282000E5D18DF817304FF0000B4FEA59004FF407
:102830007A7C59464A465B46EAFB0C01FFF7B0FD3D
:10284000404B0191FF184BF1000A81465146384632
:102850005B465A46DDF804C0484571EB0C0C03F1A9
:10286000010B28D3002A18BF9B4640F2111308BF62
:1028700093469845ADF81CB03CD0002741F2707CDF
:10288000394668083B46E4FB0C012A46FFF788FD01
:1028900086428F41284B04F1FF34B4FBF3F404F17A
:1028A000010417D2A4B203A8ADF8184002F012FD3B
:1028B00013B0BDE8F08F00FB0AF307FB0131A0FB6A
:1028C000070C15A3D3E900236144FFF769FD5B46BC
:1028D0000122BFE7A4FB0003013804FB013161F1D1
:1028E0000001194A0023FFF75BFD02308442D9D86A
:1028F00084B2D8E7C824D6E7144AD2F8883523F042
:10290000405343F00053C2F888350020D0E7104808
:10291000CEE700BFAFF3008000E1F5050000000046
:1029200000AB87047FFEF508E362BC06DB361005CA
:10293000EF5BCE031491001040420F00000090D9CD
:102940000000409C00E1F505808D5B000000264002
:1029500001004A0008B501F037FB0146094805F0BF
:1029600039FA094B0948198841F2873291429ABFD6
:1029700001F57A7189B24FF47A711980BDE8084087
:1029800005F028BA28980010802900083E98001009
:1029900070B53D4C3D493E4805F01CFA206806F0F4
:1029A00053FA28B93B493C4805F014FA002070BDA1
:1029B0003A4D286806F048FA08B93949F3E7206823
:1029C0004FF40032052105F0E2F90028EEDB28681B
:1029D0004FF40032042105F0DAF90028E6DB042187
:1029E00020684FF4803205F0D2F9014628B1294A17
:1029F0002C48042305F0EEF9D8E7206802698368C3
:102A000012689E6912F0100F4FF0040114BF4FF0CE
:102A100000734FF080634FF0A072B047014618B1C9
:102A20001C4A21480423E5E72049214B20684B60DC
:102A300010238B608368DB690BB1012298471D4826
:102A40001449042205F0C6F91B4805F0C3F92068B3
:102A50001A4E0122052105F0A6F92868002204215A
:102A600005F0A1F9308805F0AEF9206800220521B3
:102A700005F099F928680122042105F094F93088BD
:102A800005F0A1F9E3E700BF042800084E98001004
:102A90005598001099980010A3980010002800087D
:102AA000C9980010D4980010FD9800100830000854
:102AB00055290010339900104F9900108029000803
:102AC000014B1B68184700BF08280008014B18601D
:102AD000704700BF0828000807B50B4600210246D2
:102AE0000091034800F006F803B05DF804FB00BF56
:102AF000C12A00102DE9F04F814695B08B4617464C
:102B00001C460025387808B9284658E37B1C252840
:102B1000039306D05946C8470028C0F250830135B8
:102B2000FBE1182200210EA805F012FA7B78252B74
:102B30007DD00023781C98469E469C461E46014642
:102B400010F8012B2B2A00F0A18000F29880202A97
:102B500000F09F80232A00F09F802BB19DF8403029
:102B600043F040038DF84030B8F1000F05D09DF8D8
:102B7000403043F020038DF84030BEF1000F05D007
:102B80009DF8403043F010038DF84030BCF1000F49
:102B900005D09DF8403043F008038DF840302EB149
:102BA0009DF8403043F004038DF840309DF84030EC
:102BB00003F04400442803D16FF386138DF84030AE
:102BC0009DF840302A2A43F080038DF840307FD1B1
:102BD0009DF8412042F001024B1C8DF841201A78EB
:102BE0002E2A9DF841200CBF0121002161F34102F2
:102BF0008DF8412078D15A782A2A6ED001330022EC
:102C00004FF00A0C194611F8010BA0F13006092EFD
:102C100040F295809DF840101292C1F3400040EAC6
:102C2000D2700A4660F341028DF840205CE0BA1C85
:102C300003928DF843309DF84130DA0740F12E8140
:102C400054F8048BB8F1000F07DA9DF8402042F0E9
:102C500004028DF84020C8F100085E0740F127818A
:102C600054F804ABBAF1000F80F226819DF8413090
:102C70006FF341038DF841304FF0FF3A1CE12D2AEC
:102C80000DD0302A7FF469AF012358E74FF0010CD3
:102C900055E74FF0010E52E74FF001084FE70126CC
:102CA0004DE70EFB0262303A0346184610F8016BFE
:102CB000A6F1300CBCF1090FF3D999428FD09DF8E1
:102CC00040101192D20F62F341018DF8401086E757
:102CD0000B4600224FF00A0EE7E79DF8412042F034
:102CE00004028DF8412002331A786C2A47D02BD881
:102CF000682A31D06A2A4BD04C2A51D01A4612F891
:102D0000013B0392782B9DF841208DF8433000F26F
:102D1000BE806D2B51D8692B00F2B980572B67D834
:102D2000412B03D0453B022B00F2B1809DF842308D
:102D3000042262F302038DF84230012373E00CFB9E
:102D40000202303A0B465DE7742A25D07A2AD5D1A3
:102D50009DF8412006210CE05A78682A9DF8412010
:102D600006D1012161F3C6028DF841200233C5E787
:102D7000022161F3C6028DF841200133BEE75A7883
:102D80006C2A9DF8412001D10421EBE70321F0E7F3
:102D90009DF841200521ECE79DF841200721E8E757
:102DA000BDF8402022F4F04222F0020242F48042B8
:102DB00042F00202ADF84020DFE76E3BD9B20123BA
:102DC0008B4040F282410B4237D113F0240F51D196
:102DD000D8075CD59DF84230032161F302038DF8DA
:102DE000423002F07803A3F140014B424B411AE01C
:102DF000A3F15801C9B2012000FA01F111F4624FA8
:102E000094D140F6010631421DD111F4043F3ED069
:102E10009DF8423060F3020302F07802402A8DF8F8
:102E2000423034D000239DF84020C2F340010B43D0
:102E300063F341028DF84020FDE69DF84230022107
:102E400061F30203E8E79DF84210022002F07802E5
:102E500060F30201402A8DF8421002BF9DF8401035
:102E600041F001018DF84010632BDBD1131E18BF18
:102E70000123D8E79DF84230032161F3020312F0E9
:102E8000780F8DF8423014BF01230023CBE79DF863
:102E9000403043F001038DF84030C3E79DF94020F6
:102EA000002AB4BFDDF844804FF0FF38D5E698071C
:102EB0007FF5E2AEDDF848A09DF841100023CDE992
:102EC00011339DF8423003F00703012BC1F3C30116
:102ED00033D1CB1E042B04D8DFE803F02146462172
:102EE0002100236801294FEAE372CDE90E321CD19B
:102EF0009DF93830DA17CDE90E3204349DF84030B0
:102F000013F0030650D0039B3A465946484604F056
:102F1000BEFF0028C0F253810544039FF2E554F838
:102F2000043BDA17CDE90E32E8E70229E5D11AB2FF
:102F300043F3C033CDE90E23DFE7022B24D1CB1EB0
:102F4000042B04D8DFE803F018101018180001292A
:102F500054F8043B4FF0000214D00229CDE90E32A0
:102F6000CCD19BB20E93C9E7073424F00704F4E8F0
:102F70000223CDE90E23C1E754F8043B0E9300234E
:102F80000F93BBE7DBB2CDE7042B08D1073424F065
:102F90000704D4E900230834CDE90E23AEE7032B60
:102FA000ACD154F8043BDDE79DF843007828B4D851
:102FB00062281CD825283FF4ADAD5828ADD10DF1BD
:102FC00036030093DDE90E0108AB10AA04F019FFE7
:102FD000BAF1000F074680F29A80002F9DD00DF1C4
:102FE0003603D81B002E00F0C1800130BEE06338EC
:102FF000152892D801A252F820F000BFD13000105D
:10300000E33000101B2F00101B2F00101B2F00108F
:103010001B2F0010E33000101B2F00101B2F00107F
:103020001B2F00101B2F00107131001009310010F0
:103030002F3100101B2F00101B2F001055300010D7
:103040001B2F0010093100101B2F00101B2F001028
:1030500009310010BAF1000F0E9F35DB514638469A
:1030600004F082FF07EB000A002F3FF456AF002662
:103070009DF8423013F01002059200F09380023068
:103080005B06119A48BF129B0492104448BFC018B7
:10309000B8F1000F40F3A0809DF84020A8EB000895
:1030A000C2F380035007069300F19680510640F169
:1030B00089803EB159463046C84700287FDB069BD1
:1030C00001351E4630227EE0384604F02FFFC9E766
:1030D0000E9B8DF82030002608AF0DF1210A01204B
:1030E000C6E719075CBFC3F300135E01DDE90E23D9
:1030F00048BF2B26002BBFF662AF524263EB43035F
:10310000CDE90E232D265AE7002658E700269DF824
:1031100040200DF13603DB1B6FF386129A458DF8C4
:1031200040207FF65AAFAAEB0303119355E70E98A0
:1031300090B30DF13603009310AA08AB002104F000
:1031400060FEBDF8423003F0EF0343F4F04343F078
:103150001003BAF1000F0746ADF84230D6DA002866
:103160003FF4DBAE0DF13603181A00269A467FE7CE
:103170000E9B07293FF6D1AEDFE801F00C04060CE8
:1031800008080C0C1D70C8E61D80C6E6EA17C3E9E6
:103190000052C2E61D60C0E62E4F064607F1050A42
:1031A000052065E71A0748BF013069E70793104615
:1031B00006925946C8470028DDE9062304DA15B00F
:1031C000BDE8F08F202243461946002903F1FF3362
:1031D000ECDC45446D1A98462EB159463046C84736
:1031E0000028ECDB01359DF84230DA0601D41B07DC
:1031F00005D559463020C8470028E0DB0135059B3E
:1032000033B19DF843005946C8470028D7DB013544
:10321000049E2E4405E059463020C8470028CEDBE6
:103220000135731B002BF6DC53463A465946484697
:1032300004F02DFE0028C2DB0544A844A8EB0503DA
:10324000002B7FF76AAE59462020C8470028B6DB1E
:103250000135F3E772990010034B43F8302003EB7C
:10326000C0035960704700BF84290008014910223B
:103270000A60704710ED00E072B6404080F311889C
:10328000BFF36F8FBFF34F8F30BF62B6BFF36F8F47
:10329000704700BF0028ACBF00F16040064B4FEA0A
:1032A0004111ACBF00F5614000F00F00C9B2B4BFDE
:1032B000195480F80013704714ED00E030BFFFF799
:1032C000FDBF00BF0F4A08B50F4B22F07F029A6086
:1032D000BFF34F8FBFF36F8FD3F8882022F47002B3
:1032E000C3F88820EFF3148323F0040383F31488D6
:1032F000BFF36F8F03F0ECFF04F0E8FB00F014FA6B
:1033000004F038F80020001000ED00E0094A0A49F6
:10331000936809689967094958674B6843F0805377
:103320004B60002383F31188BFF36F8F9368986F0E
:10333000704700BFA03700089497001000ED00E030
:1033400012498A684FF030001044EFF3098C80E88E
:10335000F01F202080F31288BFF36F8F0C4F4FF0C7
:1033600000664A698A603E60506F0023536780F3AD
:10337000118804B5104600F01BFABDE8044002F1C4
:10338000300090E8F01F8CF309887047A0370008E0
:1033900004ED00E01EF0040F0CBFEFF30880EFF324
:1033A0000980816911F8021C0229FFD001B504F0DF
:1033B000A1FD01BD42F8203C009B42F81C3C0A499B
:1033C000019B42F8183C029B42F8143C21F0010199
:1033D0004FF0807342F8043C42F8081C0023203A66
:1033E00002654367704700BFEF7D0010094A03463E
:1033F000906870B113F1160F406E05D0A0F1400235
:103400009A4205D8834203D2814228BF00207047E8
:1034100000207047A037000808B5094B0D46144638
:10342000986000F0C5F9204685F30988002163B64D
:1034300081F31188BFF36F8F0022002304F0D7FCC3
:10344000A037000801B5EFF30580A0F110004FEAA6
:10345000C0000449014409C99847BDE80140024938
:1034600008470000842900086D340010044B996857
:103470005869884203D003494FF080520A60704770
:10348000A037000804ED00E070B5264B15469A6A97
:1034900012F0100F9A6A14BF1124102412F0080FB2
:1034A0009A6A18BF1224920706460AD5586B9A6A80
:1034B000140634D519B19A6A22F080029A62132454
:1034C00001E06FF01500174B9A6A12F0010F9A6A2B
:1034D00018BF142412F0200F9A6A18BF1524D206C0
:1034E00002D49B6A9B070AD50E4B5B68190506D56B
:1034F0003146FFF77BFF10B180F309880224094BA6
:103500009A6A920642BF5A6A22F400525A629A6A32
:1035100042F0FF029A6200232B70204670BD6FF0CC
:103520001500CCE700ED00E0134B9A6A12F0007F23
:103530009A6A14BF1E201D2012F0807F9A6A18BF5D
:103540001F2012F4002F9A6A18BF212012F4802F36
:103550009A6A18BF222012F4003F9A6A18BF2320EB
:1035600012F4803F9A6A6FEA02426FEA12429A624C
:1035700018BF2420704700BF00ED00E010B5194BC4
:103580000246986A9C6A10F4805F14BF17201620C8
:1035900014F4006F9C6A18BF1820A40509D5986B15
:1035A000986A000404D51AB19A6A22F400429A6219
:1035B00019200C4B9A6A12F4806F9A6A18BF1A206D
:1035C000D2050CD49B6A13F4005F18BF1C20054A77
:1035D000936A43F47F43936200230B7010BD1B205A
:1035E000F5E700BF00ED00E070B5454B5B688AB0C1
:1035F0000546C3F30803002686F31188BFF36F8FD7
:1036000002F07F40B0F17F4F11D102F00C0008288A
:103610000DD010074CBF0D4601260022033B8DF84C
:103620000720032B05D8DFE803F01E5D615A3546FD
:10363000F3E700249DF807309BB92022294602A811
:1036400004F07BFC099B002E54D0C3F3080222B97E
:103650006FEA53236FEA4323099302A9204604F03B
:1036600047FC0AB070BD264BDA6A9107E1D4DA6AEA
:10367000002ADEDBDA6A5200DBD55A69A96942F416
:1036800080725A61BFF34F8FBFF36F8F5A6931F861
:10369000021C22F480725A61BFF34F8FBFF36F8F09
:1036A0004DF6027291420AD09A6AD2B24AB10DF135
:1036B000070201212846FFF7E7FE0446BAE72C6817
:1036C000B8E79A6A12F47F4F05D00DF10701012087
:1036D000FFF754FFF1E79B6AB3F5803FA9D3FFF7EB
:1036E00023FFEAE70DF107020021E3E70DF10701EF
:1036F0000020EDE723F4FF7323F00103ACE700BFE4
:1037000000ED00E0024A536943F010035361704733
:1037100000ED00E0EFF30880EFF3098101B5724698
:10372000FFF762FF01BD00BF044800232021C2183B
:103730000133A82B82F80013F9D1704700E100E0B3
:10374000202080F3118808484FF40461401880F36A
:103750000988EFF314800221084380F31488BFF333
:103760006F8FFFF7AFFD000040380008084B9B68E3
:1037700083420BD1EFF3058343B1064B5A6842F005
:1037800080525A605A6A22F400425A6204F03EB9EA
:10379000A037000800ED00E0024B034A0348012176
:1037A00000F070B800001008000000083C91001004
:1037B000426E054B403A1A60044A4021C3E90112A7
:1037C0001846012100F068B81430000800000B15FD
:1037D000F0B5204E00258D4239DA446874B353B1F8
:1037E00004F1FF3C14EA0C0F2FD11F2C2DD90768D0
:1037F0001CEA070F29D1202C0768D0F808C05FFA0F
:1038000082FE1ED9B4F1004F1DD8013CB4FA84F4F5
:10381000C4F11F046400BEF1070F4CEA040C14D875
:1038200027F01F04144344F01004C6F89820C6F88B
:103830009C404CF00104C6F8A040013201350C3028
:10384000C9E70824E7E73E24E5E76FF015021046D4
:10385000F0BD00BF00ED00E0044B0522C3F894204A
:10386000BFF34F8FBFF36F8F704700BF00ED00E0D5
:10387000BFF35F8F024B0022C3F89420704700BF54
:1038800000ED00E010B5034C01232278FFF7A0FF04
:10389000207010BDDC37000808B5094A00231278F3
:1038A000FFF796FF10F1160F02D0064A072800DD39
:1038B00008BDC2F89800C2F8A0300130F6E700BF9A
:1038C000DC37000800ED00E014490868082810B54E
:1038D00021D8FFF7CDFF124C49680022904201F138
:1038E0000C0105D10F4B1870FFF7B6FF002010BD7B
:1038F000C4F8982051F80C3C23F01F03134343F005
:103900001003C4F89C3051F8043C43F00103C4F8A0
:10391000A0300132E2E74FF0FF30E8E748910010B5
:1039200000ED00E0DC370008014B1860704700BF75
:103930000C28000810B5084900220B468C68844208
:1039400003D10C2101FB023010BD0132082A01F124
:103950000C01F3D10020F7E71028000810B53F490B
:103960003F4803F039F810B16FF0040010BD082093
:10397000FFF7E0FF3B4904463B4805F085F9002886
:10398000F2D13948214603F057F80028ECD108203D
:10399000FFF7D0FF35490446354805F075F9002892
:1039A000E2D13348214603F047F80028DCD1314901
:1039B000314805F069F902460028D5D12F492E4833
:1039C00003F028F80028CFD101222B48114605F03A
:1039D0007AF90028C8D10620FFF7ACFF2849044631
:1039E000284805F051F90028BED12648214603F0A9
:1039F00023F80028B8D12348012105F072F90028E6
:103A0000B2D101221F48114605F05DF90028ABD163
:103A10001D491E4805F038F90028A5D11B48012191
:103A200005F05FF900289FD119491A4805F02CF9D3
:103A3000002899D11748012105F053F9002893D1A6
:103A40001549164805F020F900288DD113480221A8
:103A500005F047F9002889D086E700BF43A1001090
:103A600010280008049500101C2800080C95001070
:103A700028280008CC9400106428000800E1F5050F
:103A8000D494001034280008C49400104028000882
:103A9000BC94001058280008B49400104C2800086A
:103AA00008B5074805F0D0F938B10648FFF73CFFE4
:103AB0000448FFF70BF8002008BD6FF01200FBE789
:103AC00040900010C93A00100A2838B5074D044646
:103AD00004D1AB680D215B6828469847AB68034862
:103AE0005B68E1B29847204638BD00BF40900010A7
:103AF000B2F5800FF8B515463ED0B3F1007F18D06F
:103B0000B3F1806F38D101261D4B47681868BB6838
:103B100080697A6897F80CC01B1ADB0901EBC304B3
:103B2000E4B2134600218C4505D806D16FF015008C
:103B3000F8BD0226E8E71868B8B90B0102EB0111DD
:103B4000B5F5001F0F48D0504C60204608BF00213B
:103B500002F0D8FFB5F5001320467A7B18BF012389
:103B6000314602F0F5FF0020E2E7187BA04203F1A6
:103B70001003E2D00131D6E76FF08500D8E700BF2F
:103B800050350008493C0010F8B514462C4A4368EB
:103B900012689B6892699B1ADB0901EBC30104F46C
:103BA0004033B3F5803FCDB206D0B3F5003F26D009
:103BB0009BB36FF08500F8BD04F03003302B31D09B
:103BC00014F0100332D114F0200433D01C461E46EA
:103BD000032723463A463146284605F0B3F8194BE9
:103BE000984208D1284603F037F823463A46314632
:103BF000284605F0A7F898B16FF00400DBE7A307AB
:103C000006D514F0040418D0012426460427E0E762
:103C1000C4F3C04401260627DBE7284603F01CF85E
:103C20000020C8E7002426460727D2E70124002603
:103C30000227CEE726462746CBE701260527C8E719
:103C400050350008010D02040E4AC0F3C40170B5DE
:103C500052F8216046B13269916829B100F007033A
:103C600001250C689D4001B970BD8A682A4002D0C8
:103C70004B68304698471CB1236821461C46F2E742
:103C80002346FAE7189200102DE9F743DFF88C80FD
:103C9000054600EBC106B54203D1002003B0BDE8E4
:103CA000F0836B685C0726D4180726D4D90626D47F
:103CB00003F00302032A24D0DA0724D413F0020409
:103CC00018BF03249B062B68DAB248BF44F00804EF
:103CD00058F82270C3F30729C3F307430093224621
:103CE00001234946384600F0C5FB0A2C0DD00B2CA9
:103CF00011D00835CFE70424E4E70524E2E70624E1
:103D0000E0E70724DEE70224DCE7012249463846E3
:103D100004F0EBFBEDE70022F8E700BF549200103F
:103D20002DE9F04186B00469284A466803920023D1
:103D3000172204F1B40784F8B0200593049704F126
:103D4000B0087168224ACDF80880054652F8040B85
:103D5000814204D001330D2BF8D14FF0FF3384F8AA
:103D6000B130306801AA002104F055F9002810DBB9
:103D7000019B002219791868FFF786FF002808DBED
:103D800001231A464146384603F0F0F920B16FF09E
:103D9000850006B0BDE8F081049B19785A78029B33
:103DA00001F00301587800F0CFFE0028EFD102A9FE
:103DB000204604F0C5FC0028E9D10123637306F115
:103DC0000801284604F055F9E3E700BFF49200101B
:103DD0002894001010B54FF0E0239A69196998698A
:103DE000094B11F4803F094901D1824206D21A6879
:103DF0000C6822441A604FF0E02212691B680A68BE
:103E00001344181A10BD00BF483500084C3500088F
:103E1000094B202283F82320084B42F20F721A60CC
:103E2000074B002018604FF0E0235A6198611A692F
:103E300042F007021A61704700ED00E04C350008BF
:103E40004835000810B5FFF7C5FF104B1049D3E9FE
:103E500000420868001942F10002C3E900020D4A5D
:103E600000230B60D2E9004142F21073001BB0FB4B
:103E7000F3F043431B1941F10001C2E9003103F0A3
:103E8000FBFEBDE81040FFF7F1BA00BFE02E0008CE
:103E900048350008D82E00082DE9F041364F00299A
:103EA0005DD0421C0AD14FF0E022136923F00103D8
:103EB00013614FF07F433B60BDE8F0813E6801280D
:103EC00053DD40F28C68404501DC00F1FF384FF0D3
:103ED0002003EFF3118583F31288BFF36F8FFFF791
:103EE00079FF26494FF0E0239A69D1E90043001990
:103EF00043F10003C1E90003214B00241C60214B66
:103F00001B68C41A34D442F2107C0CFB084404F53C
:103F10001C54181A0F34B4FBFCF40CFB0400B0F56D
:103F2000806F25D9184B984228BF18464FF0E023E0
:103F3000386001389C69586100209861A242A2EB68
:103F40000403D1E9000238BF9B191B1842F100029B
:103F5000C1E9003285F31188BFF36F8FACE7431CD2
:103F60003E68ACD140F28C60AFE74FF00008AEE79E
:103F70004FF48060DAE700BF4C350008E02E0008FF
:103F800048350008D82E0008C0BCFF0038B54FF0F7
:103F90002003EFF3118583F31288BFF36F8F084B73
:103FA0001C68084B1B68E41AFFF714FF85F311889F
:103FB000BFF36F8F42F210732044B0FBF3F038BDB3
:103FC000E02E0008D82E000838B54FF02003EFF39C
:103FD000118583F31288BFF36F8F054B1C68FFF7C1
:103FE000F9FE85F31188BFF36F8F204438BD00BF01
:103FF000E02E0008014B1860704700BF50350008E4
:1040000010B5002004F0B9FA044600B3104B186054
:1040100000F03EFF0F4B0130B4FBF0F0186000F0F1
:104020004FFF0D4B0D4A0130B4FBF0F41C60013C16
:104030000B4BB4FBF3F3013313704FF47A73B4FBFF
:10404000F3F4084B01341C60074BE4031C6010BD03
:10405000A4280008A0280008A82800088229000831
:1040600040420F009C2800089828000808B50A481C
:10407000FFF7C0FF04F04FF8FFF7C2FF0022114620
:10408000032000F015FC054800F0B0FABDE8084038
:10409000034800F0FBBA00BF3493001074350008E9
:1040A000F493001038B50446002800F02B81002955
:1040B00000F028810B78022B00D901BE4B7B023B1C
:1040C000062B00D901BE8B7B1BB1023B012B00D913
:1040D00001BE91F82130012B00D901BE91F82830A2
:1040E000012B00D901BE0B78012B00F200814B6837
:1040F000083B082B00D901BE8B68053B042B00D977
:1041000001BE4B69FF2B00D901BE8B69FF2B00D983
:1041100001BE8B7C3BB10B7823B98B68092B01D195
:104120008B7B03B101BE4B6B23F4366323F00D038D
:1041300003B101BECB6B23F4EE6323F0030303B1A1
:1041400001BE0B78022B01D18B7F0BB14B68013B79
:10415000087F03F00F0343EA0043886808288CBFF8
:104160000020012043EAC02343F00073236020466F
:104170000D6B03F0D1FF854200D301BE20468D6B4D
:1041800003F0CAFF854200D301BE20464D6A03F00A
:10419000C3FF854200D301BE0B781B0603F04073BA
:1041A00023644B7F887C9B0143EA8023087C43EA9D
:1041B0000023487C43EA4023C86A0138000400F425
:1041C00070200343487B013800F007000343887BDD
:1041D000000100F030000343A3640D7BCB7B2D0274
:1041E000002B40F08C800878831E584258414002D2
:1041F0008B68013B03F00F032B430343C4F80033E8
:104200008B69087D1B0403F47F030343C4F8103358
:10421000D4F80033C86A03F00F030333984201D384
:10422000102800D901BEC87F38B1087800F1FF3CE2
:10423000DCF1000040EB0C0000024B7B8D7B013B6E
:104240002D0105F0300503F007032B43034363649E
:104250008B68087B013B03F00F0343EA00230878D7
:10426000451E6842684143EA0043C4F8003291F8B1
:104270003030C4F8043391F8200091F8243043EA38
:10428000406391F8210000F1FF3CDCF1000040EBBD
:104290000C0043EA006391F82800451E684268411B
:1042A00043EA0043236591F83830C4F804324B6B7D
:1042B00023F4926323F002031B051B0DC4F8C83FCF
:1042C000CB6B23F08C035B055B0DC4F8883F62B1B8
:1042D0000023C2E902335360536313601362D36255
:1042E0008B7F82F83030084B9363002038BD8B7F82
:1042F000002B3FF401AF4B68013B062BFAE64FF46D
:10430000007075E70148F1E7EFCDAB000160AA004E
:10431000064B1A6892F83320824200D801BE1B680F
:10432000B3F8BA201B6A00FB023070475035000812
:10433000204B984230D024D8802830D014D8102870
:104340002FD040282FD01C4B002818BF184670478C
:1043500000F180500138042818D8DFE800F0261753
:1043600003191B0015487047154B98420FD0B0F148
:10437000204F1DD0104AB0F5807F0CBF1846104664
:10438000704700F18053013B042BE1D90A48704784
:104390000C4870470C4870474FF4A00070470B481A
:1043A00070470B4870470B4870474FF4A4007047A4
:1043B00000207047090000A0FF00520001005200D9
:1043C0000600520002005200030052000500520095
:1043D000010050000200500008B50120FFF798FFCF
:1043E0000A4B1968D1F8BC30C358002B0BDB084BC3
:1043F0001868FFF79DFF4B6801229A604A6893682E
:10440000002BFCD108BD0348FCE700BF5035000875
:10441000D4360008020050000729F0B500D901BECB
:104420001F2A00D901BE124B1C68A3696669C31A12
:10443000DB0903294FEA031702F01F0506EB0313FC
:104440004FF01F0009D8BB59CC00A04023EA00035D
:1044500005FA04F10B43BB51F0BD04395A68C90099
:10446000884022EA000205FA01F10A435A60F3E7A4
:1044700050350008F8B50729154607469DF818205D
:104480000C461E4600D901BE0F2D03D825F00803A7
:10449000012B00D101BE012E00D901BE1F2A00D977
:1044A00001BE21463846FFF7B7FF3B680122A24014
:1044B00006F0010623EA0203A64033433B60084BA3
:1044C0001B6893F88110A4007B580F22A24005F0CE
:1044D0000F0523EA0203A5402B437B50F8BD00BF24
:1044E0005035000807290F4B0AD901BE1B689A698D
:1044F0005B69801AC00903EB0010406804390BE0C7
:104500001B689A695B69801AC00903294FEA001287
:1045100003EB0010F1D8D058C900C84000F01F00CC
:10452000704700BF50350008082930B500D901BEDA
:10453000032A00D901BE084B1B6893F8805049003C
:10454000435903248C4002F0030223EA04038A4007
:104550001343435130BD00BF50350008082900D92E
:1045600001BE054B1B6893F88030C0584900C84015
:1045700000F00300704700BF50350008084B1B686F
:10458000D3F8BC30C358002B07DAB1F5803F00D315
:1045900001BE89B24160002070470248704700BFE9
:1045A0005035000801008A000368002B08DAB1F5D5
:1045B000803FC26000D301BE89B281600020704795
:1045C0000048704701008A0001B901BE054B1B6815
:1045D000D3F8BC30C358002BBDBFC3680B600020AC
:1045E000014870475035000801008A00024B1A68E4
:1045F00002B91860704700BFE8360008F0B5214CDA
:10460000059F256805B901BE2C2568432568DEB2E3
:104610002C182E50C3F307201B0CA3601A4B6060AC
:10462000186890F83300864200D301BE1868B0F8CD
:10463000BAC0056A06FB0C55256190F83400656820
:10464000854200D301BE1B68A6681B6A05F1800085
:1046500003EB4010B6F5803F606101D301BE01BE9F
:1046600003EB4513B0B241F2080540EA0640585149
:104670000023C4E90721A36117B1B7F90030A38172
:10468000F0BD00BFE836000850350008F0B504461C
:1046900085B000B901BEA369072B00D901BEE36A4A
:1046A00003B901BE236B03B901BE164BA269196899
:1046B0006369098F039202ADD4E903670B44009547
:1046C000E16A206AADF80830D4E90932FFF796FFB5
:1046D00000223B46114600923046FFF78FFF216BC8
:1046E000284603F0F1FBBDF90830002B08DB01225E
:1046F000590903F01F0302FA03F3034A42F8213079
:1047000005B0F0BD5035000800E100E0F0B502B999
:1047100001BE164C256805B901BE25682C2606FB8E
:10472000005406FB01512569DDB18869D8B92D68AF
:10473000002D18DA4F686568012606FA07FC17880D
:1047400047EA0C471760276906FA05F5FA60B5F5E0
:10475000803F8E614B62236900D301BEADB29D6084
:10476000F0BD0348FCE70348FAE700BFE83600085D
:1047700004028A0007028A0073B5002301930446ED
:1047800000B901BE236903B901BE636903B901BE63
:10479000236A03B901BE6369DD682A0C1DD02A0CA7
:1047A00012041A601B68194B20691B68D3F8BC30CF
:1047B000C358002B11DA01A9FFF706FFF0B90198E1
:1047C000E2690668F3B29A4203D9226A52F82330AA
:1047D00093B9310C2069FFF7D1FEADB245B16369E1
:1047E0001D601B68636A002553B198476562A56127
:1047F00063691B6802B070BD9847EAE70021E9E7EA
:10480000A36A002BF3D09847F1E700BF50350008AA
:10481000044B1A6802B901BE1B682C2202FB00304F
:10482000FFF7AABFE8360008064B1A6892F8332053
:10483000824200D801BE1B68B3F8BA201B6A00FB95
:10484000023070475035000870B5154B1B6893F85F
:10485000333083420C4621D901B30D6815F01F0592
:104860001CD1FFF7E1FF0F4E0A683060D2082946DD
:10487000606803F06DFB29463068FFF77FFE29462C
:1048800030682246FFF790FE014608B1064870BD29
:104890003068FFF773FE0028F9D0F7E70348F6E722
:1048A00050350008EC36000801018A0003018A0037
:1048B00010B50C4632B969B9FFF7B6FF064B186060
:1048C000204610BD31B10549C1E90042BDE81040A4
:1048D000FFF7BABF024CF3E7EC3600084446000885
:1048E00003018A002DE9F041DFF870800446D8F812
:1048F0000000C7683B68A3420E462CD931B103685B
:10490000002B0DDB164C2046BDE8F081FDF7F1FCD5
:104910000546D8F800000368002B02DB104C16E0B7
:104920000025796804F01F03640901229A4051F8B8
:10493000243013421CBF934341F824304FF0000150
:104940000CBF084C0024FFF719FE002EDBD12846CF
:10495000FDF7D3FCD7E7044CD5E700BFEC360008E1
:10496000030188000201880004018A000A4B1B68C9
:10497000DB681A6882420DD95A684109012352F84E
:10498000212000F01F0083401342044B044818BF4D
:104990001846704703487047EC360008010188004C
:1049A0000001880004018A0098B9072923D8FF2A4A
:1049B00021D8124B1B68B3F878009B68184450F854
:1049C000213023F47F4343EA022340F821300020C2
:1049D000704701280FD10F290DD8B2F5803F0AD2B8
:1049E000064B1B68B3F87A009B68184450F82130D6
:1049F00023F47F03E5E70248704700BF5035000805
:104A000001004A0001280F4B0DD901BE0F2900D922
:104A100001BE1A68B2F87A309268134453F8210044
:104A2000C0F30F2070470028F0D1072900D901BE3C
:104A30001A68B2F878309268134453F82100C0F332
:104A40000720704750350008022830B525D10329CA
:104A500040D8B2F5803F3DD21F2B3BD81E4D286871
:104A6000B0F87C408068044454F8210020F47F00B2
:104A700020F47F4040EA022044F821002A68B2F87E
:104A80007C009268104450F8212022F0F80242EA9B
:104A9000C30340F82130002030BD03281AD1C9B922
:104AA000B2F1807F16D21F2B14D80B480168B1F8E1
:104AB0007E508C682959C9B241EA02222A51026803
:104AC000B2F87E009168425822F0F80242EAC3032D
:104AD0004350E0E70148DFE75035000801004A0095
:104AE00030B5841E012C174C0FD901BE01B101BE97
:104AF0002568B5F87E00AD68284450F82100000A0A
:104B000010602068B0F87E2014E002B103B901BE45
:104B10000228EBD1032900D901BE2568B5F87C0035
:104B2000AD68284450F82100C0F30F2010602068C1
:104B3000B0F87C208068024452F82120C2F3C402FD
:104B40001A6030BD5035000830B5134B1B6893F820
:104B50004240844204D9032902D819B9072A0BD943
:104B60000E4818E0012903D0022903D1032AF6E7F1
:104B70000F2AF4E7002AF3D193F875509C6893F854
:104B8000743001F0030100F54070A940134019434F
:104B900044F82010002030BD5035000801004A00C4
:104BA0000328F0B50B4602D818B907290BD91648C7
:104BB00028E0012803D0022803D10329F6E70F29B2
:104BC000F4E70029F3D1114A146894F8746094F85A
:104BD000771094F8767094F875C0A268032505FAEA
:104BE00001F106FA07F70540394305FA0CF51E40B6
:104BF0002943314341F00041C2F80014A368D3F8BF
:104C000000340020F0BD00BF01004A00503500080C
:104C1000032810B502D818B907290BD90E481AE095
:104C2000012803D0022803D10329F6E70F29F4E76E
:104C30000029F3D1094B1B6893F875409A6893F8E3
:104C4000743000F00300A0400B40184340F0804057
:104C5000C2F80004002010BD01004A0050350008D1
:104C600068B9072900D901BE154B1A68B2F8783027
:104C70009268134453F8210000F0010070470128A6
:104C800006D002280BD0032811D001BE00207047A7
:104C90000F2913D80A4B1A68B2F87A30E8E70329CB
:104CA00000D901BE064B1A68B2F87C30E0E701B1CA
:104CB00001BE034B1A68B2F87E30D9E701BEE9E7BE
:104CC00050350008054B1B681968D3F888208B58AD
:104CD00023F47F4343EA00238B507047503500088C
:104CE000044B1B681A68D3F88830D058C0F30720EB
:104CF000704700BF503500080F2800D901BE064A92
:104D0000D2F80035000200F4706023F47063184399
:104D1000C2F80005704700BF00002640024BD3F8E0
:104D20000005C0F30320704700002640042800D986
:104D300001BE064AD2F80035000300F4E04023F437
:104D4000E0431843C2F80005704700BF000026404A
:104D5000024BD3F80005C0F3023070470000264034
:104D6000034AD2F8003543F40043C2F800357047D7
:104D700000002640024BD3F80005C0F3C030704756
:104D800000002640034AD2F8003523F40043C2F85D
:104D90000035704700002640012800D901BE054AB1
:104DA0001368000200F4407023F44073184310604D
:104DB000704700BF00002740024B1868C0F3012075
:104DC000704700BF0000274040F20133984200D9ED
:104DD00001BE074AD2F8043520F0FE0023F44073E8
:104DE000800523F00103800D0343C2F804357047AA
:104DF00000002640044AD2F8043523F47F0343EA36
:104E00000043C2F80435704700002640034AD2F838
:104E1000043543F00043C2F80435704700002640D3
:104E2000024BD3F80405C00F704700BF00002640B6
:104E3000034AD2F8043523F00043C2F80435704722
:104E400000002640032800D901BE054AD2F80035EB
:104E500000F0030023F003030343C2F8003570475A
:104E600000002640024BD3F8000500F00300704715
:104E700000002640054B1B681968D3F888208B5822
:104E800023F07F4343EA00638B507047503500089E
:104E9000034B1B681A68D3F88830D058000E70474F
:104EA00050350008054B1B681968D3F88C208B58C7
:104EB00023F47F4343EA00238B50704750350008AA
:104EC000044B1B681A68D3F88C30D058C0F3072005
:104ED000704700BF503500080A4B1B6893F84030FC
:104EE000834281BF800000F1804000F51810D0F8A7
:104EF000803383BF43F00043C0F880330020024872
:104F0000704700BF5035000801004A00064B1B687F
:104F100093F84030834281BFE030044B53F82000C7
:104F2000C00F98BF00207047503500080000264091
:104F300090B10A4B1B6893F8403083420CD9800033
:104F400000F1804000F51810D0F8803323F00043C2
:104F5000C0F8803300207047014870475035000882
:104F600001004A000B4B1B6893F8403083420FD975
:104F70000F290DD8800000F1804000F51810D0F8FE
:104F8000803323F00F031943C0F8801300207047CB
:104F9000014870475035000801004A00064B1B6865
:104FA00093F84030834200D801BE044BE03053F800
:104FB000200000F00F007047503500080000264028
:104FC0000C4B1B6893F84030834210D903290ED84C
:104FD000800000F1804000F51810D0F8803323F0F5
:104FE000300343EA0111C0F88013002070470248E3
:104FF000704700BF5035000801004A00064B1B688F
:1050000093F84030834200D801BE044BE03053F89F
:105010002000C0F301107047503500080000264002
:10502000024B1869C0F38000704700BF00002740A2
:1050300010B50B4A136843F0080304461360FFF7EA
:10504000EFFF38B90CB9074810BD012000F0C6FCCD
:10505000013CF4E7002C034818BF0020F4E700BF30
:105060000000274002004A00024A136823F00803A8
:105070001360704700002740034AD2F80C3543F014
:105080000043C2F80C35704700002640024BD3F8AD
:105090000C05C00F704700BF00002640064BD3F838
:1050A000800110F0010009BFD3F80C25034822F05D
:1050B0000042C3F80C2570470000264003004A0058
:1050C000024B98429CBF024B1860704700E1F50507
:1050D000F4360008014B1868704700BFF43600082A
:1050E000034AD2F82C3523F00043C2F82C35704720
:1050F00000002640064AD2F8303503F00303032BA4
:105100001ABFD2F8300500F001000220704700BF3E
:105110000000264038B5144BD3F82C25002A04464D
:105120001EDBD3F82C2542F00042C3F82C2505469F
:10513000FFF7E0FF022807D00DB97CB106E001209F
:1051400000F04CFC013DF3E744B15DB9064A074C61
:10515000D2F82C3523F00043C2F82C35204638BD58
:10516000034CFBE70024F9E70000264002004A0058
:1051700003004A0008B5FFF7BDFF02280ABF024B33
:105180000020186808BD00BFF0360008104B1B68EF
:1051900093F83E30834218D9042911D9A1F58073C0
:1051A000132B12D8800000F1804000F5181001F098
:1051B0001F010423C0F80013C0F8403300207047DB
:1051C000044BD03043F82010F8E70348704700BF85
:1051D000503500080000264001004A000C4B1B68B7
:1051E00093F83E30834200D801BE800000F1804336
:1051F00003F51813D3F8400300F00700042802BF9A
:10520000D3F8000300F01F0040F48070704700BF27
:105210005035000808B51A4B1B6893F83E3083429E
:1052200000D801BEFFF7DAFFB0F5887F1AD008D8A2
:10523000012810D0022811D00028124818BF0020E1
:1052400008BD40F21113984211D040F21313984256
:1052500011D00020F4E70C4B1868F1E7BDE80840D6
:10526000FFF788BF094BD3F80C05C00F01E0FFF72B
:10527000D7FEC003E4E7054BD3F83C05F5E700BFD4
:105280005035000800127A00F4360008000026406D
:10529000024BD3F88005C00F704700BF00002640C6
:1052A0000B4BD3F8882522F0405242F00052C3F84D
:1052B0008825D3F8802522F00042C3F88025D3F852
:1052C0008C2522F00042C3F88C250020704700BFD7
:1052D0000000264000B901BE364BD3F88035002BC4
:1052E00066DB0368B3F5802F00D301BE0368C27983
:1052F000C3F3110343EA02632E4AC2F88035838860
:10530000B3F5005F00D301BE0389B3F5007F00D37E
:1053100001BE0289284B03EA02438288C2F30C02D1
:105320001343244AC2F88435837A0F2B00D901BE77
:10533000C37A0F2B00D901BE8389B3F5005F00D378
:1053400001BEC37A81891D4A1B0102EA0122DBB238
:105350001343827A02F00F021343827B120702F09A
:1053600040521343134AC2F888358379042B00D97D
:1053700001BE038AB3F5007F00D301BE8379D2F862
:105380008C151B0221F4E06103F4E0630B43C2F8C7
:105390008C35D2F88C15008A074B21F0FF7103EA97
:1053A000004321F480310B43C2F88C350020704754
:1053B00003487047000026400000FF0100FF1F0067
:1053C00003004A0000B901BE134AD2F88035C3F386
:1053D0001101C3F300630160C371D2F88435C3F3D4
:1053E0000C01C3F3084381800381D2F8883503F0B0
:1053F0000F018172C3F30311C172C3F30C21C3F314
:10540000017381818373D2F88C35C3F30222C3F315
:1054100008438271038270470000264070B5204E19
:10542000D6F88C3543F000430546C6F88C35044663
:10543000D6F890355A0700D4C4B9D6F8883523F089
:10544000405343F00053C6F8883505B134B1144ACF
:10545000D2F8803543F00043C2F88035104ED6F8BC
:105460009035DB070CD434B95DB114E0012000F0B5
:10547000B5FA013CDCE7012000F0B0FA013CEEE7B0
:105480003DB9D6F8883543F04053C6F8883500203A
:1054900070BD002CF5D1FFF703FF0248F8E700BF0D
:1054A0000000264002004A00074B1B6893F83F307B
:1054B0000138834200D801BE044B00F5C07053F898
:1054C0002000C00F704700BF503500080000264084
:1054D00010B5104B1B6893F83F20431E9A4217D912
:1054E000800000F1804404F518140120D4F8FC3544
:1054F00023F0405343F00053C4F8FC3500F06EFA3B
:10550000D4F8FC3523F00043C4F8FC35002010BD6E
:105510000148FCE75035000801004A0070B5214BF6
:105520001B6893F83F308342024601D21E4870BD8B
:10553000FFF7BAFF98BB8B78981E0E28F6D84D78E7
:10554000681E1128F2D8CC78087824B31228EDD937
:105550003826B042EAD80E79022E0AD01B0443EA5C
:105560000523034343EAC46302F27F100F4C44F85F
:105570002030900000F1804000F518100B79D0F831
:10558000FC251B0703F0405322F040521343C0F8A0
:10559000FC350020CBE71528C8D97026D9E7044888
:1055A000C5E700BF5035000801004A000000264052
:1055B00003004A000F4A126892F83F20431E9A42A5
:1055C00015D900F27F100C4B53F8203003F07F0206
:1055D0000A70C3F304224A70C3F304428A70C3F30F
:1055E000C062C3F30173CA700B7100207047034897
:1055F000704700BF503500080000264001004A00F7
:105600002DE9F04F8FB00B68534A0093A3F5741344
:10561000A3F5106300259342CDE90355089000F2ED
:10562000988091F808A04D4B4D4AD1F80480AA45C6
:1056300008BF13469845C0F08C804A4B984500F24D
:1056400088804B7A0C95022B8DF8345002937CD0D5
:10565000AA45454A059514BF132316230693434BC9
:10566000019518BF13460793009A069BA3FB0232CD
:10567000CDE9093201242F46DDE9096BE3B2DDF8FB
:1056800018900B93BAF1000F37D0B9F1380F3FD80B
:105690003B46224630465946FCF782FE344B984240
:1056A00024D9079B834221D3B6FBF4FC02235FFA83
:1056B00089FE019ABCFBF3F0A0EB0801A2EB080203
:1056C0000029B8BF4942002AB8BF524291420AD2CB
:1056D000019A90450AD0DAB204920B9DCDF80CE005
:1056E0000122019005920133112BE2D1009BF618A3
:1056F00009F101094BF1000BC4E7B9F1710F07D0B3
:105700003B46224630465946FCF74AFE194BC6E74F
:10571000013447F10007A4F113033B43ACD1059BCF
:105720003BB1039B8DF83030049B8DF831508DF8E0
:1057300032308DF833A0029B08988DF834300CA9D4
:10574000FFF7ECFE0FB0BDE8F08F0CA9FFF732FFBA
:10575000F1E70948F6E700BF00879303E81FA200BE
:1057600020BCBE0080D1F00800C2EB0B0084D7172C
:105770007FFE210AFFC1EB0B01004A0070B5234BED
:105780001B6893F83F20431E9A420D463BD9800088
:1057900000F1804404F518140E46D4F8FC3543F0AB
:1057A0000043C4F8FC35D4F83C36DB0719D49EB965
:1057B000D5B1D4F8FC3523F0405343F00053C4F87E
:1057C000FC35012000F00AF9D4F8FC35104823F02C
:1057D0000043C4F8FC350EE0012000F0FFF8013E64
:1057E000E1E70DB1002EE4D0D4F8FC35C3F301732A
:1057F000022B01D0002070BDD4F8FC3543F040539B
:10580000C4F8FC35F6E70348F5E700BF503500085B
:1058100002004A0001004A0070B586B0142200213F
:1058200001A802F095FB01A8FFF7CCFD104BD3F8BF
:105830008035002B18DA9DF81230022B14D0BDF8F9
:10584000081099B10020019D9DF80B60FFF7E2FC64
:1058500006FB01120023044659085008E4FB050129
:10586000FCF79EFD06B070BD0020FBE70846F9E797
:105870000000264073B51F4B1A6892F83F1005468A
:1058800011B9002002B070BD0028FAD092F83E2075
:10589000824200D801BE1B6893F83F30AB42F0D380
:1058A00000246946284600948DF80440FFF782FEE4
:1058B0002846FFF7F9FD0028E4D09DF80430022BBC
:1058C000DFD09DF80140002CDBD09DF8021071B1B3
:1058D00028469DF80060FFF79DFCA4FB01230546C8
:1058E00059085008E5FB0601FCF75AFDCAE70846CF
:1058F000C8E700BF5035000810B50D4B1A6892F884
:105900003E208242044600D801BE1CB9FFF784FF46
:1059100028B110BD1B6893F83F30A34204D2204643
:10592000BDE81040FFF776BC2046FFF7A3FFEFE786
:105930005035000810B51B4CD4F80435002B11DA93
:10594000002002F01AFED4F8043540F20132134070
:1059500040F201118B421ED0B3F5817F13D2F3B117
:10596000012B00D000200F4BD3F80425D3F80435C9
:10597000C2F307420132C3F3074300EB5200013385
:10598000B0FBF3F010BD40F201218B4205D09342F1
:10599000E8D1C008E7E74008E5E78008E3E7024808
:1059A000E1E700BF0000264000127A0038B5094D3B
:1059B0000446B4F5004F06D8074B18686043BDE8AD
:1059C0003840FCF78DBC2868FCF78AFCA4F500443D
:1059D000EFE700BF982800089C280008024B1B78BE
:1059E0005843FCF77DBC00BF8229000870B50A4609
:1059F000011E2D480368B3F8AC601D6818BF192458
:105A0000735908BF642494422CBF0024012423F05E
:105A10000303234373510368B3F8AC601D687359E3
:105A200023F44073735103681D68B3F8AE60735973
:105A300023F00303234373510368B3F8AE501C688B
:105A40002B5923F440732B5169B1102A23D9212AF1
:105A50008CBF0221012103685A68136823F00F03E9
:105A60000B43136070BD036893F855409442F2D223
:105A700093F85610914210D293F8571091420ED2DB
:105A800093F8581091420CD293F85930934234BF96
:105A900005210421DFE70021DDE70121DBE7022109
:105AA000D9E70321D7E700BF50350008064B4FF078
:105AB000B052D3F81C3F92F8400703F01F03181AA6
:105AC00018BF0120704700BF00F02640034B186844
:105AD00080F40000C0F3C050704700BF00002640B3
:105AE00008B51A4B1A68D2F890001368195801F0DB
:105AF0000301032918BF1958D2F894001A5818BF87
:105B000001F0010102F0030214BF01310421032A54
:105B10000AD141F48061FFF7D9FF68B1FFF7C6FFF2
:105B200080B141F0800008BD1B58DB074CBF41F439
:105B3000007141F48071EEE7054B5B6903F00703E8
:105B4000022BEED141F40060EDE700BF50350008B4
:105B500000002640042806D14FF0E022136943F0EC
:105B6000040313617047074B1B6800061A68D3F8DB
:105B7000A43000F04070D0504FF0E022136923F0C1
:105B80000403EEE750350008012B2DE9F8430446E5
:105B90000E4617461D4600D901BEB4F5805F00D3FE
:105BA00001BEDFF88490D9F80030B3F872008008A5
:105BB000404220F0804020F47060304201D17300F8
:105BC00000D401BE84EA060818F4706829D1FCF7F5
:105BD00090FBD9F80010B1F872C0B1F87030D1F86C
:105BE00008E0B1F86E104FEA9C02013A31403240B1
:105BF0007344090A03EB82030CFB01F1E4B25A5827
:105C00006D0244EA072405F4007522F47F722C43E8
:105C100022F0030214435C50FCF76FFB4046BDE8E2
:105C2000F883DFF80880F9E7503500080100CE005E
:105C3000012AF8B506460D46144600D901BE1F4F8D
:105C40003B68B3F872309B085B4223F0804323F437
:105C5000F853334202D11A4BB34300D001BE3B6824
:105C600093F830301F2B26D9FCF743FB3968B1F885
:105C70007270B1F87020D1F808C0BB08013B334006
:105C8000624402EB8302B1F86E3033401B0A7B435F
:105C90006402D658002D26F4407604F4007440F2D5
:105CA000011144EA060408BF01210C43D450FCF75B
:105CB00024FB0020F8BD0348FCE700BF5035000876
:105CC000001000400100CE0038B51B4D2B68B3F822
:105CD00072309B085B4223F0804323F4F853034265
:105CE000044602D1154B834300D001BE2B6893F8C4
:105CF00030301F2B1DD9FCF7FCFA2D68B5F86E105B
:105D0000B5F87230B5F87020AD682140090A2A4410
:105D100003FB01229B08013B234052F8231021F48E
:105D2000407121F0010142F82310FCF7E6FA00204F
:105D300038BD0348FCE700BF5035000800100040A4
:105D40000100CE0073B51C4B4279044653F8220083
:105D5000224604F1540142F8180BFEF7A3F9054658
:105D600038BB164E6379C4F8940036F81330ADF89A
:105D70000030C4E92700072311490193684602F067
:105D8000A3F8637936F91330002B08DB0122590997
:105D900003F01F0302FA03F30A4A42F821300A4AC9
:105DA0006079214600F046FA2268136843F0004308
:105DB0001360284602B070BD28940010D2970010DE
:105DC000A186001000E100E0CD5D00102DE9F04754
:105DD00090F80880B8F1FF0F054624D043490968C0
:105DE000B8F1770F8E694FEAD80301D806EBC316D6
:105DF000AF7AFF2F19D02C7B44B13C490968772F2B
:105E00008C694FEAD70301D804EBC314013A08F0B8
:105E1000070807F00707072A65D8DFE802F0084FF0
:105E2000644C6464644F0026E2E70024EEE705F169
:105E3000180A2868514602F0A8F9C20754D4286805
:105E4000514602F0A0F9C3074ED42B68D3F80812CC
:105E5000D3F80822C1F30801C2F3C032CA4243D1C9
:105E6000D3F80823C2F30809B9F1000F3CD176B189
:105E700041463046FEF736FB414685F898003046ED
:105E800002F042FB4A4641463046FEF7C5FA74B17D
:105E900039462046FEF726FB394685F8990020460C
:105EA00002F032FB002239462046FEF7B5FA286898
:105EB000514602F053F90120BDE8F0872A681368C3
:105EC00043F0004313602EB195F8982041463046C8
:105ED000FEF7A2FA002CEED095F89920394620461C
:105EE000FEF79AFAE7E701BE0020E5E75035000823
:105EF0002DE9F74F437B06460D469146002B76D0A1
:105F00000746002157F8100B02F028F9002211462D
:105F1000384602F0D8FE804640B13268136843F03C
:105F200000431360404603B0BDE8F08F4FF008080F
:105F30004FEAC50A44464FF0FF0B02F02EFB00EB80
:105F40005A03B3FBFAF3019302F027FB019B03FB17
:105F500008F3B0FBF3F39D4234BF5B1BEB1A6422E2
:105F60005343B3FBF5F3DBB29B4588BF5FFA88F47C
:105F700008F1010888BF9B46B8F1110FAA44DCD193
:105F8000B46502F00AFB654300EB5500B0FBF5F584
:105F90003846294602F0A5FE804628B1002201219C
:105FA000384602F090FEB8E702F0F7FAB9F1000FB8
:105FB00004D06543B0FBF5F0C9F8000000220121D0
:105FC000384602F080FE96F870103268631E03F0C7
:105FD0000F0343EA0143F16D08298CBF0021012121
:105FE00043EAC12343F000738046136095E7DFF86E
:105FF000048097E7061E020470B505460E46144657
:1060000000F012F9B8B92A68D2F84033591C0BD104
:10601000002CF9D00120FFF7C9FC2B68D3F84033DE
:10602000581C04F1FF3402D03370002070BD002CE6
:10603000F0D10248FAE70248F8E700BF021E020466
:106040000319020438B504460D4600F0EDF838B9DE
:106050002068294602F005FA0028F9D0002038BD52
:106060000048FCE70319020438B50446407AFF28CB
:10607000154615D069B3E37A93B92749231D122237
:1060800002F0CCFB94F8A4300821FBB902F09BFE8F
:1060900078BB2268136D43F0007313650123E3722C
:1060A000A07AFF2830D045B3237B6BBB1B49231D4F
:1060B000122202F0B3FB94F8A4300621D3B902F007
:1060C00082FEB0FA80F35B09237312E000F0CAFF8E
:1060D000DEE794F8A43043B902F094FE2268136D11
:1060E00023F0007313650023D9E700F0E3FF0028D5
:1060F000F4D038BD00F0B6FFE3E794F8A4302BB934
:1061000002F080FE002323730020F2E700F0D2FFAC
:106110000028EED1F6E700BF619A0010199A00102E
:1061200010B40346064850F8230028B1054C54F833
:1061300023300BB110BC1847012010BC704700BFC2
:106140002C370008F83600082DE9F04106460846CD
:106150000C4602F06CFE002507465FFA85F83A46C9
:1061600031464046FFF7DCFF034668B9012C0BD1EE
:10617000044604E002223146FFF7D2FF0134E0B2C8
:106180008045F7D8002009E001350D2DE5D1022C1E
:1061900001D0082C04D1064B00221A70BDE8F08112
:1061A000012CFBD1002BEDD0014B1C70F6E700BF9A
:1061B000DE370008EFF30583103B9BB2123B202B28
:1061C0002BD8DFE803F0202A2A2A2A2A2A2A2A2A78
:1061D0002A2A2A2A2A2A2A2A2A2A2A2B2D1116185A
:1061E0001A1C1E222426280002230E4A52F82300DD
:1061F00070470323F9E70423F7E70523F5E70623B0
:10620000F3E70723F1E70823EFE70923EDE70A2384
:10621000EBE70B23E9E70C23E7E701BE0023E4E704
:106220000123E2E72C370008014B1878704700BFC4
:10623000DE37000810B4104B104C43F8201044F81F
:1062400020201A4600200D2352F8044B0CB180B9CF
:106250000120013B13F0FF03F6D128B901B101BEC3
:10626000074810BC00F050BF19B1054810BC00F041
:1062700039BF10BC704700BF2C370008F836000843
:10628000F028000801BE0148704700BF0202020466
:1062900001BE0148704700BF0202020401BE01486E
:1062A000704700BF0202020401BE0148704700BFF0
:1062B000020202040048704700127A00024BD3F831
:1062C0002C05C00F704700BF00002640024B186825
:1062D000C0F3C000704700BF00002740024B0B60B6
:1062E00005231360002070473C290008024B0B6017
:1062F00001231360002070475C2900084078044B9C
:10630000043003EB80030B6001231360002070470F
:1063100050290008024B0B600923136000207047CE
:1063200050290008024B0B600223136000207047C5
:1063300034290008024B0B600123136000207047D2
:1063400010290008024B0B600123136000207047E6
:1063500000290008024B0B600123136000207047E6
:106360000C290008024B0B600223136000207047C9
:1063700004290008024B0B600223136000207047C1
:106380002C290008024B0B60062313600020704785
:10639000142900088A4238B594BF002301238342A0
:1063A0000446154607D08A422CBF0021012180F007
:1063B0000103994206D102F054F90549B5FBF1F108
:1063C000FFF714FB1CB9BDE83840FDF719BE38BD16
:1063D00040420F002DE9F8430B78043B0746072B9A
:1063E00028D8DFE803F02C220927272F270440F2C2
:1063F00011154FF4004403E0FEF76CFE012504463E
:10640000002002F0BAF806460020FEF7F7FD8046AD
:10641000002097F80190FEF7C1FD814515D07878EE
:106420002946BDE8F843FEF7B1BEFEF7A3FE0225FC
:106430000446E5E701BE104D2846BDE8F8830F4C41
:106440000025DDE74FF48875D3E724FA08F42246E7
:1064500031460120FFF79EFF29467878FEF796FE29
:10646000054620B922463146FFF794FFE4E732465D
:1064700021460020F8E700BF0102020400127A0062
:1064800008B50B78092B04D00B2B07D001BE0448AC
:1064900003E00020FEF7D6FC002008BD0120F9E74C
:1064A0000102020408B50B78A3F10D02012A04D8F9
:1064B0004878FEF721FC002008BD0F2B03D1487857
